:100000000C9461000C947E000C947E000C947E0095
:100010000C947E000C947E000C947E000C947E0068
:100020000C947E000C947E000C947E000C947E0058
:100030000C947E000C947E000C947E000C947E0048
:100040000C9434010C947E000C947E000C947E0081
:100050000C947E000C947E000C947E000C947E0028
:100060000C947E000C947E00000000002400270009
:100070002A000000000023002600290000000000E4
:10008000250028002B0004040404040404040202D4
:100090000202020203030303030301020408102007
:1000A0004080010204081020010204081020000012
:1000B0000008000201000003040700000000000027
:1000C000000011241FBECFEFD8E0DEBFCDBF11E08E
:1000D000A0E0B1E0ECEEF4E002C005900D92A23099
:1000E000B107D9F721E0A2E0B1E001C01D92A13132
:1000F000B207E1F70E947E010C9474020C94000098
:10010000833081F028F4813099F08230A1F0089595
:100110008730A9F08830B9F08430D1F48091800024
:100120008F7D03C0809180008F7780938000089539
:1001300084B58F7702C084B58F7D84BD089580918A
:10014000B0008F7703C08091B0008F7D8093B000A6
:1001500008951F93CF93DF93E8EBF0E09491E4EAE6
:10016000F0E0D491E0E9F0E0C491CC23D1F0182F75
:10017000992319F0892F0E948000EC2FF0E0EE0FF8
:10018000FF1FE458FF4FA591B4919FB7F894111148
:1001900004C08C91D095D82302C0EC91DE2BDC9367
:1001A0009FBFDF91CF911F9108953FB7F894809141
:1001B0000D0190910E01A0910F01B091100126B593
:1001C000A89B05C02F3F19F00196A11DB11D3FBF8F
:1001D000BA2FA92F982F8827820F911DA11DB11D1D
:1001E000BC01CD0142E0660F771F881F991F4A9519
:1001F000D1F708958F929F92AF92BF92CF92DF92E4
:10020000EF92FF926B017C010E94D5004B015C01D3
:10021000C114D104E104F104F1F00E94D500DC0125
:10022000CB0188199909AA09BB09883E9340A10509
:10023000B10570F321E0C21AD108E108F10888EE97
:10024000880E83E0981EA11CB11CC114D104E104E6
:10025000F10419F7DDCFFF90EF90DF90CF90BF90C2
:10026000AF909F908F9008951F920F920FB60F92AC
:1002700011242F933F938F939F93AF93BF938091BC
:10028000090190910A01A0910B01B0910C013091EC
:10029000080123E0230F2D3720F40196A11DB11D85
:1002A00005C026E8230F0296A11DB11D2093080169
:1002B0008093090190930A01A0930B01B0930C0164
:1002C00080910D0190910E01A0910F01B09110014C
:1002D0000196A11DB11D80930D0190930E01A09375
:1002E0000F01B0931001BF91AF919F918F913F91FA
:1002F0002F910F900FBE0F901F901895789484B592
:10030000826084BD84B5816084BD85B5826085BD11
:1003100085B5816085BD80916E00816080936E009F
:100320001092810080918100826080938100809191
:100330008100816080938100809180008160809342
:1003400080008091B10084608093B1008091B00002
:1003500081608093B00080917A00846080937A00FD
:1003600080917A00826080937A0080917A00816027
:1003700080937A0080917A00806880937A0010924E
:10038000C100C8EAD0E0FE01449104E910E0F801A0
:1003900084918823C9F090E0880F991FFC01E859E7
:1003A000FF4F25913491FC01E458FF4FA591B49182
:1003B0005FB7F894F9019081842F809598239083FA
:1003C0008C91842B8C935FBFE4EAF0E02491E0E908
:1003D000F0E08491882399F090E0880F991FFC0148
:1003E000E859FF4FA591B491FC01E458FF4F859166
:1003F00094918FB7F894EC91E22BEC938FBF9CEB28
:10040000E92E90E0F92E20E0C22E20E0D22EF70156
:100410008491FE01A490F801B490BB20A1F0811159
:100420000E948000EB2DF0E0EE0FFF1FEE58FF4F13
:10043000A591B4918C918A2131E020E009F430E05B
:10044000832F922F02C080E090E020910001309134
:10045000010128173907D1F12FB7F894409109010C
:1004600050910A0160910B0170910C012FBF4093D4
:1004700004015093050160930601709307012FB7A3
:10048000F8944091090150910A0160910B0170911B
:100490000C012FBF8090040190900501A0900601EF
:1004A000B0900701481959096A097B094536510579
:1004B0006105710558F02091020130910301281760
:1004C000390721F090930301809302019093010179
:1004D0008093000180E00E94A900C114D10409F4B6
:0C04E00096CF0E94000093CFF894FFCF4D
:0204EC0001000D
:00000001FF
